:020000040800F2
:1000000000500020D1030008710300087F0300089E
:10001000850300088B03000891030008000000001E
:10002000000000000000000000000000970300082E
:10003000A503000800000000B3030008C103000886
:1000400021040008210400082104000821040008FC
:1000500021040008210400082104000821040008EC
:1000600021040008210400082104000821040008DC
:1000700021040008210400082104000821040008CC
:1000800021040008210400082104000800000000E9
:100090000000000000000000000000002104000833
:1000A000210400082104000821040008210400089C
:1000B000210400082104000821040008210400088C
:1000C000210400082104000821040008210400087C
:1000D0002104000821040008210400080000000099
:1000E0002104000821040008210400080000000089
:1000F00000000000000000000000000021040008D3
:100100000000000021040008210400082104000868
:1001100000000000000000000000000000000000DF
:10012000210400082104000821040008210400081B
:100130002104000800000000000000000000000092
:100140000000000000000000000000002104000882
:1001500021040008210400082104000821040008EB
:100160002104000821040008000000000000000035
:10017000000000000000000000000000000000007F
:100180000000000021040008000000000000000042
:04019000210400083E
:1001940010B5054C237833B9044B13B10448AFF3BD
:1001A40000800123237010BD4404002000000000DF
:1001B4008805000808B5034B1BB103490348AFF396
:1001C400008008BD000000004804002088050008E5
:1001D40080B400AF0C4B1B6B0B4A43F00103136359
:1001E4000A4B1B68094A23F440631360074B1B68DE
:1001F400064A43F480631360044B5B69034A43F08B
:1002040020035361FEE700BF0038024000000240B3
:1002140080B485B000AF78600DE00023FB6002E09D
:10022400FB680133FB60FB6840F67A429342F7DDDA
:100234007B68013B7B607B68002BEEDC00BF1437DE
:10024400BD465DF8047B704780B400AF084BD3F81B
:100254008830074A43F47003C2F88830044B4FF0E7
:1002640000629A6000BFBD465DF8047B704700BF22
:1002740000ED00E080B487B000AF00233B610023B1
:100284007B610223FB600023BB6002237B60324B53
:100294009B6803F00C033B613B69042B07D0082BDC
:1002A40009D0002B3DD12D4B2D4A1A603DE02B4B3C
:1002B4002C4A1A6039E0284B5B689B0D03F001035C
:1002C400BB60254B5B6803F03F037B60BB68002B7E
:1002D4000CD0244A7B68B2FBF3F31F4A526892099C
:1002E400C2F3080202FB03F37B610BE01C4A7B6848
:1002F400B2FBF3F3184A52689209C2F3080202FBF4
:1003040003F37B61144B5B681B0C03F003030133A1
:100314005B00FB607A69FB68B2FBF3F30F4A13607E
:1003240003E00E4B0E4A1A6000BF0B4B9B681B097F
:1003340003F00F030C4AD35CDBB23B61074B1A6832
:100344003B6922FA03F3054A136000BF1C37BD461C
:100354005DF8047B704700BF0038024000000020B5
:100364000024F40000127A000400002080B400AFDE
:1003740000BFBD465DF8047B704780B400AFFEE764
:1003840080B400AFFEE780B400AFFEE780B400AFF6
:10039400FEE780B400AF00BFBD465DF8047B704744
:1003A40080B400AF00BFBD465DF8047B704780B4E5
:1003B40000AF00BFBD465DF8047B704780B400AF5A
:1003C40000BFBD465DF8047B70470000DFF834D001
:1003D400002103E00C4B5B58435004310B480C4B99
:1003E40042189A42F6D30B4A02E0002342F8043B37
:1003F400094B9A42F9D3FFF727FF00F011F8FFF7F2
:10040400E7FE704700500020B005000800000020FF
:10041400440400204404002084040020FEE700007B
:1004240070B50D4E0D4D761BB61006D00024013468
:1004340055F8043B9847A642F9D1094E094D761B5D
:1004440000F0A0F8B61006D00024013455F8043B9F
:100454009847A642F9D170BDA4050008A405000878
:10046400AC050008A4050008024B13B1024800F0D3
:1004740005B87047000000008D0400080023014601
:100484001A46184600F01EB838B50A4C0A4D641BCB
:10049400A4100AD004F18043013B05EB8305013C21
:1004A40055F804399847002CF9D1BDE8384000F0DC
:1004B4006FB800BFB0050008AC050008704700BF66
:1004C400704700BF2DE9F8432B4D0646286898462F
:1004D4000F469146FFF7F2FF284B1C68D4F84831C9
:1004E400002B3DD05A681F2A0DDC02F1010C16BB0B
:1004F4000232C3F804C0286843F82270FFF7E0FF13
:100504000020BDE8F8831E4B7BB34FF4C870AFF3F3
:100514000080034648B3D4F848210021C0E90021F3
:100524004FF0010CC4F848010A46C0F88811C0F81D
:100534008C11002EDCD003EB82010124C1F88890D9
:10054400D3F8880194402043022EC3F88801C1F8EF
:100554000881CDD1D3F88C110C43C3F88C41C7E783
:1005640004F5A673C4F84831BCE72868FFF7A8FF70
:100574004FF0FF30C5E700BF40040020A00500088D
:1005840000000000F8B500BFF8BC08BC9E467047E8
:0C059400F8B500BFF8BC08BC9E467047DC
:0405A000180000201F
:0805A4006D040008B901000814
:0405AC0095010008AD
:1005B0000024F40000000000000000000102030419
:1005C00006070809000000000000000004030020E6
:1005D0006C030020D4030020000000000000000095
:1005E000000000000000000000000000000000000B
:1005F00000000000000000000000000000000000FB
:1006000000000000000000000000000000000000EA
:1006100000000000000000000000000000000000DA
:1006200000000000000000000000000000000000CA
:1006300000000000000000000000000000000000BA
:1006400000000000000000000000000000000000AA
:10065000000000000000000000000000000000009A
:10066000000000000000000000000000000000008A
:1006700001000000000000000E33CDAB34126DE627
:10068000ECDE05000B000000000000000000000090
:10069000000000000000000000000000000000005A
:1006A000000000000000000000000000000000004A
:1006B000000000000000000000000000000000003A
:1006C000000000000000000000000000000000002A
:0409F000600400207F
:04000005080003D11B
:00000001FF
